:020000040800F2
:100000000804002049010008AB010008A301000812
:10001000A9010008910100087B020008000000000F
:10002000000000000000000000000000D5010008F2
:100030009301000800000000CD010008D70100086E
:100040006301000863010008630100086301000800
:100050006301000863010008950100089901000888
:100060009B0100089D0100089F0100086301000832
:1000700063010008630100086301000863010008D0
:1000800063010008630100086301000863010008C0
:10009000630100086301000863010008A101000872
:1000A00063010008630100086301000861020008A1
:1000B000630200086502000867020008A501000845
:1000C00063010008A701000863010008CF010008D0
:1000D000D1010008750200087702000879020008C3
:1000E000970100086301000863010008630100082C
:1000F00063010008630100086F0200086301000843
:10010000630100086301000869020008D3010008C8
:1001100071020008730200086B0200086D020008FB
:10012000630100086301000863010008630100081F
:10013000DFF810D000F01AF800480047B1020008BC
:10014000AFF30080080400200648804706480047B7
:10015000FEE7FEE7FEE7FEE7FEE7FEE7FEE7FEE777
:10016000FEE7FEE7DD01000831010008064C074DFF
:1001700006E0E06840F0010394E807009847103477
:10018000AC42F6D3FFF7D8FFC4030008E40300082D
:10019000FEE7704770477047704770477047704779
:1001A0007047FEE770477047FEE770470907090E82
:1001B000002806DA00F00F0000F1E02080F8141D9E
:1001C000704700F1E02080F80014704770477047D6
:1001D00070477047704700F061B8000082B01D485A
:1001E000016841F4700101601B48016841F00101A0
:1001F000016001688907FCD5416841F080014160D8
:100200000022019202E00199491C019101995029B3
:10021000F9D3416841F090014160019202E00199F7
:10022000491C019101995029F9D3416821F003013A
:1002300041600168094B194001604FF41F01816062
:10024000016821F4802101604260C26202B000F0C6
:1002500091B8000088ED00E000100240FFFFF6FEBC
:1002600070477047704770477047704770477047D6
:1002700070477047704770477047FEE702E008C854
:10028000121F08C1002AFAD170477047002001E010
:1002900001C1121F002AFBD170470000034801680A
:1002A000002902D00168491E01607047000000204B
:1002B00000F062F8FEE7000000212A48026842F4DC
:1002C000803202604FF6FF73491C026802F400326C
:1002D0000AB99942F8D10168890300D4FEE7C169DF
:1002E00041F08051C16120490A6842F440420A60ED
:1002F0004268426042684260426842F48062426002
:10030000426822F440324260426842F44032426025
:100310004268164B1A4042604268154B1A434260CD
:10032000026842F08072026002689201FCD50A689D
:1003300042F480320A604A68D203FCD50A6842F46B
:1003400000320A604A689203FCD5416821F003013B
:100350004160416841F00201416041680907FCD5F4
:10036000704700000010024000700040FFFFC3B75C
:1003700000003408FFF7A0BF70B5104810490068AE
:10038000B0FBF1F1491E4FF0FF35B1F1807F01D391
:1003900001210BE04FF0E02461610F212846FFF7B7
:1003A00005FF0020A06107202061002101B1FEE7C8
:1003B0002846BDE870400021FFF7F8BE0400002089
:1003C00040420F00E4030008000000200800000085
:1003D0007C020008EC030008080000200004000074
:0C03E0008C02000800000000000E27073F
:0400000508000131BD
:00000001FF
